:100000000C9434000C9451000C9451000C94510049
:100010000C9451000C9451000C9451000C9451001C
:100020000C9451000C9451000C9451000C9451000C
:100030000C9451000C9451000C9451000C945100FC
:100040000C9451000C9451000C9451000C945100EC
:100050000C9451000C9451000C9451000C945100DC
:100060000C9451000C94510011241FBECFEFD8E026
:10007000DEBFCDBF11E0A0E0B1E0EEE1F5E002C0EF
:1000800005900D92AA31B107D9F721E0AAE1B1E0BC
:1000900001C01D92AB31B207E1F70E94EB000C9456
:1000A0008D020C94000024EA2093BC002091BC0037
:1000B0002223E2F72091B9002695269526952A95C8
:1000C0002230B0F42EE42093BB0024E82093BC003F
:1000D0002091BC002223E2F72091B90026952695B5
:1000E0002695283034F4233041F0243009F421C01F
:1000F00008952930F1F02830D9F7E0E0F0E024E865
:10010000E130F105B1F0DC01AE0FBF1F3C9130933F
:10011000BB002093BC003091BC003323E2F7319642
:100120003091B900369536953695353049F33630ED
:10013000F9F684E98093BC0008951F93CF93DF9371
:10014000CDB7DEB722970FB6F894DEBF0FBECDBF96
:10015000182F1295107F162B812F8C608983CE016A
:1001600001960E94530083EC90E00197F1F718602C
:100170001A83CE0102960E9453008BE891E001970A
:10018000F1F722960FB6F894DEBF0FBECDBFDF9118
:10019000CF911F910895CF92DF92EF92FF921F931C
:1001A0007B01DC01EA0EFB1E1D91812F82958F7071
:1001B00061E06D010E949D001F70812F61E00E942F
:1001C0009D00D601AE15BF0579F71F91FF90EF9006
:1001D000DF90CF9008950E94ED00CF92DF92EF92D2
:1001E000FF920F931F93CF93DF93CDB7DEB7219785
:1001F0000FB6F894DEBF0FBECDBF8FB7F8949091C5
:100200001A01913009F47FC191E090931A018FBFD8
:100210003C98449A3D98459A88E48093B80010929F
:10022000B9008CE38983CE0101960E94530023EC30
:1002300030E0C90179010197F1F788E38983CE01A4
:1002400001960E9453002BE831E0C9016901019732
:10025000F1F707EF1FE3C8010197F1F78BE19EE08B
:100260000197F1F78CE38983CE0101960E94530038
:10027000C7010197F1F788E38983CE0101960E94B7
:1002800053009601C9010197F1F7C9010197F1F7F0
:100290008CE38983CE0101960E945300C701019728
:1002A000F1F788E38983CE0101960E9453009601FD
:1002B000C9010197F1F7C9010197F1F78CE2898330
:1002C000CE0101960E945300C7010197F1F788E221
:1002D0008983CE0101960E9453009601C9010197BE
:1002E000F1F7C9010197F1F78CE28983CE010196FC
:1002F0000E945300C7010197F1F788E28983CE017C
:1003000001960E945300C6010197F1F78CE889839A
:10031000CE0101960E945300C7010197F1F788E8CA
:100320008983CE0101960E945300C6010197F1F71F
:10033000C7010197F1F78CE08983CE0101960E94F5
:100340005300C7010197F1F788E08983CE01019638
:100350000E945300C6010197F1F78CEC8983CE010E
:1003600001960E945300C7010197F1F788EC898339
:10037000CE0101960E945300C6010197F1F7C70113
:100380000197F1F78CE08983CE0101960E9453001A
:10039000C7010197F1F788E08983CE0101960E9499
:1003A0005300C6010197F1F78CE68983CE010196CF
:1003B0000E945300C7010197F1F788E68983CE01B7
:1003C00001960E945300C6010197F1F7C7010197FA
:1003D000F1F78CE08983CE0101960E945300C7019A
:1003E0000197F1F788E08983CE0101960E945300BE
:1003F000C6010197F1F78CE18983CE0101960E9435
:100400005300C7010197F1F788E18983CE01019676
:100410000E945300C6010197F1F78BE39FE101971A
:10042000F1F78CE88983CE0101960E945300C70141
:100430000197F1F788E88983CE0101960E94530065
:10044000C6010197F1F78CE08983CE0101960E94E5
:100450005300C7010197F1F788E08983CE01019627
:100460000E945300C6010197F1F7C7010197F1F708
:1004700080E091E06BE070E00E94CB008CEC89831F
:10048000CE0101960E945300C7010197F1F788EC55
:100490008983CE0101960E945300C6010197F1F7AE
:1004A0008CE08983CE0101960E945300C701019719
:1004B000F1F788E08983CE0101960E945300C601BE
:1004C0000197F1F78BE091E06FE070E00E94CB00C4
:1004D00080E090E02BEF38E0AC01BC01F8013197EF
:1004E000F1F7433F510568077907E1E008F0E12D96
:1004F000E1704F5F5F4F6F4F7F4FE03079F7F90149
:100500003197F1F7E9CF8FBF0E948A020E948C02D7
:0E0510000E9486020E948802FFCFF894FFCF5F
:10051E004369616F204D6F6E646F21527573742045
:0A052E0073752041726475696E6FE9
:00000001FF
